{
  "contractName": "Poll",
  "abi": [
    {
      "inputs": [],
      "stateMutability": "nonpayable",
      "type": "constructor"
    },
    {
      "inputs": [
        {
          "internalType": "uint256",
          "name": "",
          "type": "uint256"
        }
      ],
      "name": "candidates",
      "outputs": [
        {
          "internalType": "string",
          "name": "name",
          "type": "string"
        },
        {
          "internalType": "uint256",
          "name": "voteCount",
          "type": "uint256"
        },
        {
          "internalType": "uint256",
          "name": "id",
          "type": "uint256"
        }
      ],
      "stateMutability": "view",
      "type": "function",
      "constant": true
    },
    {
      "inputs": [
        {
          "internalType": "string",
          "name": "",
          "type": "string"
        }
      ],
      "name": "namedCandidate",
      "outputs": [
        {
          "internalType": "string",
          "name": "name",
          "type": "string"
        },
        {
          "internalType": "uint256",
          "name": "voteCount",
          "type": "uint256"
        },
        {
          "internalType": "uint256",
          "name": "id",
          "type": "uint256"
        }
      ],
      "stateMutability": "view",
      "type": "function",
      "constant": true
    },
    {
      "inputs": [],
      "name": "owner",
      "outputs": [
        {
          "internalType": "address",
          "name": "",
          "type": "address"
        }
      ],
      "stateMutability": "view",
      "type": "function",
      "constant": true
    },
    {
      "inputs": [
        {
          "internalType": "address",
          "name": "",
          "type": "address"
        }
      ],
      "name": "voted",
      "outputs": [
        {
          "internalType": "bool",
          "name": "",
          "type": "bool"
        }
      ],
      "stateMutability": "view",
      "type": "function",
      "constant": true
    },
    {
      "inputs": [],
      "name": "getCandidates",
      "outputs": [
        {
          "components": [
            {
              "internalType": "string",
              "name": "name",
              "type": "string"
            },
            {
              "internalType": "uint256",
              "name": "voteCount",
              "type": "uint256"
            },
            {
              "internalType": "uint256",
              "name": "id",
              "type": "uint256"
            }
          ],
          "internalType": "struct Poll.Candidate[]",
          "name": "",
          "type": "tuple[]"
        }
      ],
      "stateMutability": "view",
      "type": "function",
      "constant": true
    },
    {
      "inputs": [],
      "name": "setPaused",
      "outputs": [],
      "stateMutability": "nonpayable",
      "type": "function"
    },
    {
      "inputs": [],
      "name": "removePaused",
      "outputs": [],
      "stateMutability": "nonpayable",
      "type": "function"
    },
    {
      "inputs": [
        {
          "internalType": "string",
          "name": "_name",
          "type": "string"
        }
      ],
      "name": "vote",
      "outputs": [],
      "stateMutability": "nonpayable",
      "type": "function"
    },
    {
      "inputs": [],
      "name": "getWinner",
      "outputs": [
        {
          "internalType": "string",
          "name": "_winningCandidate",
          "type": "string"
        }
      ],
      "stateMutability": "view",
      "type": "function",
      "constant": true
    },
    {
      "inputs": [
        {
          "internalType": "string",
          "name": "_name",
          "type": "string"
        }
      ],
      "name": "getVoteCount",
      "outputs": [
        {
          "internalType": "uint256",
          "name": "_voteCount",
          "type": "uint256"
        }
      ],
      "stateMutability": "view",
      "type": "function",
      "constant": true
    }
  ],
  "bytecode": "0x608060405234801561001057600080fd5b50336000806101000a81548173ffffffffffffffffffffffffffffffffffffffff021916908373ffffffffffffffffffffffffffffffffffffffff160217905550611520806100606000396000f3fe608060405234801561001057600080fd5b506004361061009e5760003560e01c80638da5cb5b116100665780638da5cb5b1461015f5780638e7ea5b21461017d5780639aa0e1a71461019b578063aec2ccae146101a5578063fc36e15b146101d55761009e565b8063069953a7146100a357806306a49fce146100d3578063117859a6146100f15780633477ee2e1461012357806337a66d8514610155575b600080fd5b6100bd60048036038101906100b89190610de3565b6101f1565b6040516100ca9190610e45565b60405180910390f35b6100db61021c565b6040516100e89190611009565b60405180910390f35b61010b60048036038101906101069190610de3565b610321565b60405161011a93929190611075565b60405180910390f35b61013d600480360381019061013891906110df565b6103e9565b60405161014c93929190611075565b60405180910390f35b61015d6104ab565b005b610167610556565b604051610174919061114d565b60405180910390f35b61018561057a565b6040516101929190611168565b60405180910390f35b6101a36106af565b005b6101bf60048036038101906101ba91906111b6565b61075a565b6040516101cc91906111fe565b60405180910390f35b6101ef60048036038101906101ea9190610de3565b61077a565b005b60006003826040516102039190611255565b9081526020016040518091039020600101549050919050565b60606001805480602002602001604051908101604052809291908181526020016000905b8282101561031857838290600052602060002090600302016040518060600160405290816000820180546102739061129b565b80601f016020809104026020016040519081016040528092919081815260200182805461029f9061129b565b80156102ec5780601f106102c1576101008083540402835291602001916102ec565b820191906000526020600020905b8154815290600101906020018083116102cf57829003601f168201915b505050505081526020016001820154815260200160028201548152505081526020019060010190610240565b50505050905090565b60038180516020810182018051848252602083016020850120818352809550505050505060009150905080600001805461035a9061129b565b80601f01602080910402602001604051908101604052809291908181526020018280546103869061129b565b80156103d35780601f106103a8576101008083540402835291602001916103d3565b820191906000526020600020905b8154815290600101906020018083116103b657829003601f168201915b5050505050908060010154908060020154905083565b600181815481106103f957600080fd5b906000526020600020906003020160009150905080600001805461041c9061129b565b80601f01602080910402602001604051908101604052809291908181526020018280546104489061129b565b80156104955780601f1061046a57610100808354040283529160200191610495565b820191906000526020600020905b81548152906001019060200180831161047857829003601f168201915b5050505050908060010154908060020154905083565b3373ffffffffffffffffffffffffffffffffffffffff1660008054906101000a900473ffffffffffffffffffffffffffffffffffffffff1673ffffffffffffffffffffffffffffffffffffffff1614610539576040517f08c379a000000000000000000000000000000000000000000000000000000000815260040161053090611318565b60405180910390fd5b6001600460006101000a81548160ff021916908315150217905550565b60008054906101000a900473ffffffffffffffffffffffffffffffffffffffff1681565b6060600080600090505b6001805490508110156106aa5781600182815481106105a6576105a5611338565b5b906000526020600020906003020160010154111561069757600181815481106105d2576105d1611338565b5b9060005260206000209060030201600101549150600181815481106105fa576105f9611338565b5b906000526020600020906003020160000180546106169061129b565b80601f01602080910402602001604051908101604052809291908181526020018280546106429061129b565b801561068f5780601f106106645761010080835404028352916020019161068f565b820191906000526020600020905b81548152906001019060200180831161067257829003601f168201915b505050505092505b80806106a290611396565b915050610584565b505090565b3373ffffffffffffffffffffffffffffffffffffffff1660008054906101000a900473ffffffffffffffffffffffffffffffffffffffff1673ffffffffffffffffffffffffffffffffffffffff161461073d576040517f08c379a000000000000000000000000000000000000000000000000000000000815260040161073490611318565b60405180910390fd5b6000600460006101000a81548160ff021916908315150217905550565b60026020528060005260406000206000915054906101000a900460ff1681565b600260003373ffffffffffffffffffffffffffffffffffffffff1673ffffffffffffffffffffffffffffffffffffffff16815260200190815260200160002060009054906101000a900460ff1615610807576040517f08c379a00000000000000000000000000000000000000000000000000000000081526004016107fe9061142a565b60405180910390fd5b600460009054906101000a900460ff1615610857576040517f08c379a000000000000000000000000000000000000000000000000000000000815260040161084e90611496565b60405180910390fd5b60006003826040516108699190611255565b90815260200160405180910390206001015403610a6a57806003826040516108919190611255565b908152602001604051809103902060000190805190602001906108b5929190610b59565b5060016003826040516108c89190611255565b9081526020016040518091039020908060018154018082558091505060019003906000526020600020906003020160009091909190915060008201816000019080546109139061129b565b61091e929190610bdf565b506001820154816001015560028201548160020155505060006001808054905061094891906114b6565b9050806001828154811061095f5761095e611338565b5b906000526020600020906003020160020181905550806003836040516109859190611255565b908152602001604051809103902060020181905550600181815481106109ae576109ad611338565b5b906000526020600020906003020160010160008154809291906109d090611396565b91905055506003826040516109e59190611255565b90815260200160405180910390206001016000815480929190610a0790611396565b91905055506001600260003373ffffffffffffffffffffffffffffffffffffffff1673ffffffffffffffffffffffffffffffffffffffff16815260200190815260200160002060006101000a81548160ff02191690831515021790555050610b56565b600381604051610a7a9190611255565b90815260200160405180910390206001016000815480929190610a9c90611396565b91905055506001600382604051610ab39190611255565b90815260200160405180910390206002015481548110610ad657610ad5611338565b5b90600052602060002090600302016001016000815480929190610af890611396565b91905055506001600260003373ffffffffffffffffffffffffffffffffffffffff1673ffffffffffffffffffffffffffffffffffffffff16815260200190815260200160002060006101000a81548160ff0219169083151502179055505b50565b828054610b659061129b565b90600052602060002090601f016020900481019282610b875760008555610bce565b82601f10610ba057805160ff1916838001178555610bce565b82800160010185558215610bce579182015b82811115610bcd578251825591602001919060010190610bb2565b5b509050610bdb9190610c6c565b5090565b828054610beb9061129b565b90600052602060002090601f016020900481019282610c0d5760008555610c5b565b82601f10610c1e5780548555610c5b565b82800160010185558215610c5b57600052602060002091601f016020900482015b82811115610c5a578254825591600101919060010190610c3f565b5b509050610c689190610c6c565b5090565b5b80821115610c85576000816000905550600101610c6d565b5090565b6000604051905090565b600080fd5b600080fd5b600080fd5b600080fd5b6000601f19601f8301169050919050565b7f4e487b7100000000000000000000000000000000000000000000000000000000600052604160045260246000fd5b610cf082610ca7565b810181811067ffffffffffffffff82111715610d0f57610d0e610cb8565b5b80604052505050565b6000610d22610c89565b9050610d2e8282610ce7565b919050565b600067ffffffffffffffff821115610d4e57610d4d610cb8565b5b610d5782610ca7565b9050602081019050919050565b82818337600083830152505050565b6000610d86610d8184610d33565b610d18565b905082815260208101848484011115610da257610da1610ca2565b5b610dad848285610d64565b509392505050565b600082601f830112610dca57610dc9610c9d565b5b8135610dda848260208601610d73565b91505092915050565b600060208284031215610df957610df8610c93565b5b600082013567ffffffffffffffff811115610e1757610e16610c98565b5b610e2384828501610db5565b91505092915050565b6000819050919050565b610e3f81610e2c565b82525050565b6000602082019050610e5a6000830184610e36565b92915050565b600081519050919050565b600082825260208201905092915050565b6000819050602082019050919050565b600081519050919050565b600082825260208201905092915050565b60005b83811015610ec6578082015181840152602081019050610eab565b83811115610ed5576000848401525b50505050565b6000610ee682610e8c565b610ef08185610e97565b9350610f00818560208601610ea8565b610f0981610ca7565b840191505092915050565b610f1d81610e2c565b82525050565b60006060830160008301518482036000860152610f408282610edb565b9150506020830151610f556020860182610f14565b506040830151610f686040860182610f14565b508091505092915050565b6000610f7f8383610f23565b905092915050565b6000602082019050919050565b6000610f9f82610e60565b610fa98185610e6b565b935083602082028501610fbb85610e7c565b8060005b85811015610ff75784840389528151610fd88582610f73565b9450610fe383610f87565b925060208a01995050600181019050610fbf565b50829750879550505050505092915050565b600060208201905081810360008301526110238184610f94565b905092915050565b600082825260208201905092915050565b600061104782610e8c565b611051818561102b565b9350611061818560208601610ea8565b61106a81610ca7565b840191505092915050565b6000606082019050818103600083015261108f818661103c565b905061109e6020830185610e36565b6110ab6040830184610e36565b949350505050565b6110bc81610e2c565b81146110c757600080fd5b50565b6000813590506110d9816110b3565b92915050565b6000602082840312156110f5576110f4610c93565b5b6000611103848285016110ca565b91505092915050565b600073ffffffffffffffffffffffffffffffffffffffff82169050919050565b60006111378261110c565b9050919050565b6111478161112c565b82525050565b6000602082019050611162600083018461113e565b92915050565b60006020820190508181036000830152611182818461103c565b905092915050565b6111938161112c565b811461119e57600080fd5b50565b6000813590506111b08161118a565b92915050565b6000602082840312156111cc576111cb610c93565b5b60006111da848285016111a1565b91505092915050565b60008115159050919050565b6111f8816111e3565b82525050565b600060208201905061121360008301846111ef565b92915050565b600081905092915050565b600061122f82610e8c565b6112398185611219565b9350611249818560208601610ea8565b80840191505092915050565b60006112618284611224565b915081905092915050565b7f4e487b7100000000000000000000000000000000000000000000000000000000600052602260045260246000fd5b600060028204905060018216806112b357607f821691505b6020821081036112c6576112c561126c565b5b50919050565b7f596f7520617265206e6f7420746865206f776e65720000000000000000000000600082015250565b600061130260158361102b565b915061130d826112cc565b602082019050919050565b60006020820190508181036000830152611331816112f5565b9050919050565b7f4e487b7100000000000000000000000000000000000000000000000000000000600052603260045260246000fd5b7f4e487b7100000000000000000000000000000000000000000000000000000000600052601160045260246000fd5b60006113a182610e2c565b91507fffffffffffffffffffffffffffffffffffffffffffffffffffffffffffffffff82036113d3576113d2611367565b5b600182019050919050565b7f596f75206861766520616c7265616479206d61646520612063686f6963650000600082015250565b6000611414601e8361102b565b915061141f826113de565b602082019050919050565b6000602082019050818103600083015261144381611407565b9050919050565b7f506f6c6c2069732063757272656e746c79206f6e20686f6c6400000000000000600082015250565b600061148060198361102b565b915061148b8261144a565b602082019050919050565b600060208201905081810360008301526114af81611473565b9050919050565b60006114c182610e2c565b91506114cc83610e2c565b9250828210156114df576114de611367565b5b82820390509291505056fea26469706673582212201434274e20ade6b6b2008e7c0e51a483d0c4e00b8bb8be94d13f57a5825e4fc664736f6c634300080e0033",
  "immutableReferences": {},
  "source": "// SPDX-License-Identifier: UNLICENSED\r\npragma solidity >=0.8.0 <0.9.0;\r\n\r\ncontract Poll{\r\n    address public owner;\r\n    constructor()  {\r\n        owner=msg.sender;\r\n\r\n         }\r\n   \r\n    struct Candidate{\r\n        string name;\r\n        uint voteCount;\r\n        uint id;\r\n    }\r\n    Candidate[] public candidates;\r\n    mapping (address=>bool) public voted;\r\n    mapping (string=>Candidate) public namedCandidate;\r\n\r\n    bool paused;\r\n\r\n    function getCandidates() public view returns(Candidate[] memory){\r\n        return candidates;\r\n    }\r\n\r\n    function setPaused() public{\r\n        require(owner==msg.sender,\"You are not the owner\");\r\n        paused=true;\r\n    }\r\n    function removePaused() public{\r\n        require(owner==msg.sender,\"You are not the owner\");\r\n        paused=false;\r\n    }\r\n\r\n    function vote(string memory _name) public {\r\n        require(!voted[msg.sender], \"You have already made a choice\");\r\n        require(!paused,\"Poll is currently on hold\");\r\n        if(namedCandidate[_name].voteCount==0){\r\n        namedCandidate[_name].name=_name;\r\n       candidates.push(namedCandidate[_name]);\r\n       uint id= candidates.length-1;\r\n       candidates[id].id=id;\r\n       namedCandidate[_name].id=id;\r\n       candidates[id].voteCount++;\r\n       namedCandidate[_name].voteCount++;\r\n       voted[msg.sender]=true;\r\n\r\n        }\r\n        else{\r\n        namedCandidate[_name].voteCount++;\r\n        candidates[namedCandidate[_name].id].voteCount++;\r\n        voted[msg.sender]=true;\r\n        }\r\n      \r\n            }\r\n    \r\n    function getWinner() public view returns(string memory _winningCandidate){\r\n        uint highestVote;\r\n        for(uint i=0;i<candidates.length;i++){\r\n            if(candidates[i].voteCount>highestVote){\r\n                highestVote = candidates[i].voteCount;\r\n                _winningCandidate=candidates[i].name;\r\n            }\r\n        }\r\n\r\n\r\n    }\r\n\r\n    function getVoteCount(string memory _name) public view returns(uint _voteCount){\r\n        _voteCount=namedCandidate[_name].voteCount;\r\n    }\r\n    \r\n}",
  "sourcePath": "D:\\Cankut Codes\\Poll Project\\contracts\\Poll.sol",
  "compiler": {
    "name": "solc",
    "version": "0.8.14+commit.80d49f37.Emscripten.clang"
  },
  "schemaVersion": "3.4.7",
  "updatedAt": "2022-05-31T22:24:59.560Z",
  "networkType": "ethereum",
  "devdoc": {
    "kind": "dev",
    "methods": {},
    "version": 1
  },
  "userdoc": {
    "kind": "user",
    "methods": {},
    "version": 1
  }
}